:020000040800F2
:100000002005002045010008DD100008D51000087B
:10001000D9100008C1010008E51400080000000024
:100020000000000000000000000000003D1100087A
:1000300089020008000000000D110008711100087D
:100040005F0100085F0100085F0100085F01000810
:100050005F0100085F0100088D0200085F010008D1
:100060005F0100085F0100085F0100085F010008F0
:100070005F0100085F0100085F0100085F010008E0
:100080005F0100085F0100085F0100085F010008D0
:100090005F0100085F0100085F0100085F010008C0
:1000A0005F0100085F0100085F0100085F010008B0
:1000B0005F0100085F0100085F0100085F010008A0
:1000C0005F0100085F0100085F0100085F01000890
:1000D0005F010008C51400085F0100085F01000807
:1000E0005F0100085F0100085F0100085F01000870
:1000F0005F0100085F0100085F0100085F01000860
:100100005F0100085F0100085F0100085F0100084F
:100110005F0100085F010008291200085F01000864
:100120005F0100085F0100085F0100085F0100082F
:10013000DFF80CD000F032F80048004755160008F0
:10014000200500200648804706480047FEE7FEE7F6
:10015000FEE7FEE7FEE7FEE7FEE7FEE7FEE7FEE777
:10016000D911000831010008D2B201E000F8012BDA
:10017000491EFBD270470022F6E710B513460A4627
:1001800004461946FFF7F0FF204610BD421C10F848
:10019000011B0029FBD1801A70470000064C074D57
:1001A00006E0E06840F0010394E807009847103447
:1001B000AC42F6D3FFF7C0FF781800089818000883
:1001C000FEE7000070B582B040F2540443F6000030
:1001D000C2F20004C4F201004FF4E13100260C2207
:1001E00084E843002046C4E90366C4E9052600F01C
:1001F00049FE206840F21005C168C2F2000541F0D6
:100200001001C16041F21400C4F202000168202212
:1002100041F0010101600068802100F001000190BF
:1002200001985820C4F202004FF48053C5E900063B
:100230002846C5E90261C5E90466C5E9062300F060
:1002400027F840F2DC01C2F200012046402265633B
:100250006C6200F08DFE02B070BD0000B0B5D0E958
:1002600000CED0E90F40012505FA00F06060084695
:10027000CCF80430BEF1100F04BF10460A46CCF88B
:100280000800CCF80C20B0BD70470000704700009B
:10029000002804BF012070472DE9F04140F2000C16
:1002A000C4F2020C01684FF6F8320CF58163CBF60C
:1002B000FD72994238BF02F580624CF6CD430A4484
:1002C000CCF6CC43A2FB03236FF003050CF580644E
:1002D00005EA9303D0E9012ED0F80C803CBF00243E
:1002E000C4F20204C0E90F430B6843F6F075AB4358
:1002F0001A43D0E9045442EA0E0242EA0802D0E965
:1003000006672A43224332433A430A6000214FF4EE
:10031000807281630284BDE8F041084670470000A6
:1003200010B5044690F82000012821D094F821004F
:100330004FF0010C012884F820C016D1022084F867
:1003400021000020A063D4F800C0DCF8000020F0F9
:100350000100CCF800002046FFF780FF2068E26A29
:1003600001683AB141F00E010AE0002084F8200053
:10037000022010BD21F004010160016841F00A0172
:1003800001602068016841F001010160002010BD9A
:10039000B0B5044600F00AF9054640F20800C2F282
:1003A00000000078611C18BF044400BF00F0FEF894
:1003B000401BA042FAD3B0BD2DE9F04F83B00C68CA
:1003C000002C00F0EA80A0F18042A2F5843240F2D5
:1003D000004E4FEAB22241F60047C4F2010E0092ED
:1003E000C4F20107062200254FF001094FF0000B6F
:1003F0004FF0000AB84208BF0522019209E000BF91
:100400000C680BF1010B34FA0BF205F1040500F056
:10041000C48009FA0BF814EA080CF1D04C684FF6C6
:10042000FF72C1F21002944210DC122C50D8DFE8A7
:1004300004F0330A41454F4F4F4F4F4F4F4F4F4FEF
:100440004F4F4F484C00D1F80CA041E04FF6FF72DF
:10045000C1F2210294420FDC0022C1F21102944247
:100460001AD00022C1F21202944215D00022C1F229
:100470002102944210D02BE00022C1F222029442C9
:100480000AD00022C1F23102944205D00022C1F20A
:10049000320294421CD100BF8C6844B1012C14BFBD
:1004A000C0F81480C0F810804FF0080A10E04FF038
:1004B000040A0DE0CC6804F1080A09E04FF0000AD4
:1004C00006E0CC6804F1040A02E0CC6804F10C0AEE
:1004D0002C460746BCF5807F24BF203C04373A6891
:1004E0000F2303FA04F6B2430AFA04F422433A60F3
:1004F000CA79D2067FF584AF41F21804C4F202042F
:1005000022684FF6084842F0010222602268CFF6C6
:10051000FF7802F001020292029A2BF00302724469
:1005200052F8084005F00C0603FA06F7009BBC439E
:10053000019F052B38BF1F4607FA06F6344342F8E1
:1005400008404C68E203DEF8002054BF22EA0C07A2
:1005500042EA0C07A203CEF80070DEF8042054BF74
:1005600022EA0C0742EA0C07E202CEF80470DEF839
:10057000082054BF22EA0C0742EA0C07A20240F20C
:100580000C44CEF80870C4F20104226854BF22EA79
:100590000C0242EA0C02226032E703B0BDE8F08FA1
:1005A000002A08BF090401617047000040F21C10D6
:1005B000C2F200000068704740F2080040F21C11CF
:1005C000C2F20000C2F2000100780A68104408601C
:1005D0007047000080B542F20000C4F202000168DA
:1005E00041F010010160032000F046F80F2000F0F8
:1005F00005F800F02BF8002080BD0000B0B540F2F7
:100600000802C2F2000240F204011278C2F20001B4
:100610004FF47A730968B3FBF2F20446B1FBF2F1CE
:10062000084600F0C7FA0F2C4FF001050CD858B956
:100630004FF0FF3021460022002500F00DF840F277
:100640000C00C2F2000004602846B0BD70470000F4
:1006500080B500F049FF80BD70B514460D460646D2
:1006600000F052FF2946224600F03AFD014630468E
:1006700000F052FF70BD000080B500F05FFF80BD4C
:100680002DE9F04381B0002800F0898042F2000893
:10069000C4F202080446D8F800000D4600F0070036
:1006A00088420CD2D8F8000020F007002843C8F890
:1006B0000000D8F8000000F00700A8426FD12068C1
:1006C00041F204098107C4F2020917D5410705D593
:1006D000D9F8001041F4E061C9F80010010705D510
:1006E000D9F8001041F46051C9F80010D9F8001091
:1006F000A26821F0F0011143C9F80010C00745D1EC
:10070000D8F8000000F00700A8420CD9D8F8000083
:1007100020F007002843C8F80000D8F8000000F0D7
:100720000700A8423BD12068410707D5D9F800103F
:10073000E26821F4E0611143C9F80010000708D510
:10074000D9F80000216920F4605040EAC100C9F8DE
:10075000000000F079F8D9F8001041F66002C1F30A
:100760000311C0F60002515C40F2040220FA01F1CC
:1007700040F20C00C2F200000068C2F200021160F8
:10078000FFF73CFF002001B0BDE8F083606802285D
:1007900009D0012829D159F8041C890307D4012064
:1007A00001B0BDE8F08359F8041C8901F7D5D9F8E8
:1007B000001021F003010843C9F80000FFF7F6FE1E
:1007C000064641F2883700BFD9F80000616800F0A2
:1007D0000C00B0EB810F93D0FFF7E8FE801BB8420E
:1007E000F2D9032001B0BDE8F08359F8041C890751
:1007F000D5D5DCE740F20400C2F200000068704783
:1008000080B5FFF7F7FF41F20401C4F20201096865
:1008100041F67002C1F30221C0F60002515CC840EB
:1008200080BD000080B5FFF7E5FF41F20401C4F28E
:100830000201096841F67002C1F3C221C0F600024C
:10084000515CC84080BD000041F2040CC4F2020CAF
:10085000DCF8003003F00C00082841F20020C0F260
:100860007A0018BF7047C3F383420AA18A5CD90398
:1008700005D440F60010C0F23D0050437047DCF84C
:10088000001008A3C1F34041595C5043B0FBF1F0A4
:10089000704700BF02030405060708090A0B0C0D88
:1008A0000E0F1010010200002DE9F04182B0002867
:1008B00000F0C4800446007841F20006C007C4F28C
:1008C000020643D0706800F00C00042817D070684E
:1008D00000F00C00082802D17068C0030FD46568CE
:1008E0002DB1B5F5A02F10D0B5F5803F11D03068EF
:1008F00020F480303060306820F480200CE03068D4
:10090000800323D5606808BB98E0306840F48020FD
:100910003060306840F480303060FFF747FE002DD3
:10092000054610D03068800310D4FFF73FFE401B0F
:100930006428F7D904E100BFFFF738FE401B6428A4
:100940004FF0030077D830688003F5D42078800713
:1009500018D5706810F00C0F07D0706800F00C000C
:10096000082826D17068C00323D43068800702D5D8
:100970002069012862D13068616920F0F80040EAFE
:10098000C1003060207800073DD5A06938B3002051
:10099000C4F242200121C0F88014FFF707FE05468B
:1009A000706A80072DD4FFF701FE401B0228F7D99B
:1009B000C6E02069002840F20000C4F2422000F0A6
:1009C000968001210160FFF7F1FD05463068800740
:1009D000D1D4FFF7EBFD401B0228F7D9B0E000208F
:1009E000C4F242200021C0F88014FFF7DFFD054665
:1009F000706A800707D5FFF7D9FD401B0228F7D999
:100A00009EE000F085FB207840071BD4E5698DB19E
:100A1000706800F00C00082847D1012D0ED07068D6
:100A2000216A00F480328A4208D1616A00F47010B1
:100A3000884203D1002002B0BDE8F081012002B05D
:100A4000BDE8F081F06910F0805808D1F06940F0FD
:100A50008050F061F06900F080500190019847F2F9
:100A60000007C4F200073868C00510D4386840F4A5
:100A700080703860FFF79AFD054600BF3868C005F2
:100A800005D4FFF793FD401B6428F7D958E0E568CB
:100A90001DB1052D3CD0012D3ED0306A20F0010063
:100AA0003062306A20F0040039E00027C4F24227A7
:100AB00000203866FFF77AFD022D05460CD100BFF5
:100AC0003068800154D5FFF771FD401B02284FF0BC
:100AD0000300F5D9AFE700BF30688001AAD5FFF762
:100AE00065FD401B02284FF00300F5D9A3E7002164
:100AF0000160FFF75BFD0546306880077FF542AF78
:100B0000FFF754FD401B02284FF00300F4D992E791
:100B1000306A40F004003062306A40F00100306218
:100B2000FFF744FD002D054641F2883714D000BF81
:100B3000306A800713D4FFF739FD401BB842F7D95C
:100B4000032002B0BDE8F081FFF730FD401BB84242
:100B50004FF003003FF66FAF306A8007F4D4B8F16E
:100B6000000F7FF453AFF06920F08050F0614DE743
:100B7000206AB0F5803F05D17168A26821F4003188
:100B8000114371607168626A21F474111043084363
:100B9000706001203866FFF709FD04463068800167
:100BA0003FF548AFFFF702FD001B02284FF003009E
:100BB000F4D940E780B500F0C3FA80BD704700006B
:100BC00070470000002804BF0120704710B504469C
:100BD00090F83D0028B9002084F83C00204600F041
:100BE0000DF8022084F83D002068211D00F024FB50
:100BF000012084F83D00002010BD00007047000077
:100C00000068C16841F00101C160816801F007011D
:100C1000062903D0016841F00101016000207047FE
:100C20007047000010B5044600680169890744BF99
:100C3000C1685FEA817138D420680169490744BFFF
:100C4000C1685FEA41713CD420680169090744BF6B
:100C5000C1685FEA017141D420680169C90644BFD7
:100C6000C1685FEAC16145D420680169C9071CBF3A
:100C7000C1685FEAC1714AD120680169090644BFB1
:100C8000C1685FEA016149D420680169490644BF2F
:100C9000C1685FEA416148D420680169890644BFA0
:100CA000C1685FEA816147D410BD6FF00201016144
:100CB000012121778069800745D02046FFF7B0FFEA
:100CC00047E06FF00401016102212177806910F48F
:100CD000407F41D02046FFF7A3FF43E06FF00801BB
:100CE000016104212177C06980073ED02046FFF7CB
:100CF00097FF40E06FF01001016108212177C06982
:100D000010F4407F3AD02046FFF78AFF3CE06FF0B6
:100D100001010161204600F03FF8ADE76FF080016E
:100D200001612046FFF74AFFAEE76FF04001016125
:100D3000204600F041F8AFE76FF020010161204646
:100D4000FFF73EFF10BD204600F022F8204600F0DD
:100D500021F8002020776FE7204600F019F82046A0
:100D600000F018F8002020776EE7204600F010F819
:100D7000204600F00FF8002020776DE7204600F0B5
:100D800007F8204600F006F8002020776CE7000006
:100D90007047000070470000006841F20001C4F293
:100DA0000001884218BF704740F2D400C2F2000030
:100DB00001680131016070477047000090F83810F9
:100DC000012904BF022070470122016880F8382001
:100DD0004A6990F83930212B06D112F0800203D0F5
:100DE0004A6922F080024A614A6990F83A30222B1F
:100DF0000ED112F040020BD0CA6822F48072CA6091
:100E00004A6922F001024A614A6922F040024A61BD
:100E1000002180F8381008467047000081B090F833
:100E20003810012901D1022126E0012180F8381073
:100E300090F83910212904D101684A6942F08002F2
:100E40004A6190F83A10222913D1002100910168DB
:100E50000A6800924A680092009ACA6842F4807256
:100E6000CA604A6942F001024A614A6942F040029E
:100E70004A61002180F83810084601B07047000030
:100E800070470000002804BF0120704710B50446D9
:100E900090F8390028B9002084F83800204600F086
:100EA00021F8242084F839002068C16821F4005119
:100EB000C160204600F08CFA2068016921F490415D
:100EC0000161416921F02A014161C16841F4005189
:100ED000C16000202021E06384F8391084F83A10C2
:100EE00010BD0000B0B584B041F21800C4F2020099
:100EF000016840F6000441F4804101600168C4F2D9
:100F0000010401F480410091009901686D4641F0AF
:100F100004010160016801F0040100910099016879
:100F200041F0040101600068294600F004000090CF
:100F300000984FF400700090022001900120029070
:100F4000032003902046FFF737FA4FF480600090AB
:100F50000020019020462946FFF72EFA2520002187
:100F60000022FFF779FB2520FFF772FB04B0B0BD2C
:100F700070B582B0054690F83A0020280DD113468E
:100F80000A4600294FF0010418BF002B06D095F83F
:100F90003800012805D1022400E00224204602B0D6
:100FA00070BD012085F8380000242220AA62AB859C
:100FB000EC6385F83A002968686B41F25D3C41F2C8
:100FC000953E41F21136C0F6000CC0F6000EC0F698
:100FD00000060431C0E90ACEC0E90C64FFF7A0F9AD
:100FE000019428680168019141680191019985F88F
:100FF0003840C16841F48071C160416941F001012C
:101000004161416941F040014161C7E7704700001B
:10101000704700002DE9F041044690F8390020287F
:101020000DD10E4600294FF0010050D01746002A7E
:1010300008BFBDE8F08194F83800012802D10220F1
:10104000BDE8F081012084F838000020E063212011
:101050001D4684F83900FFF7A9FAA784E784E18CDC
:10106000804661B92046402142462B4600F0F8F9FF
:1010700038B30320BDE8F081E08C0028F2D0E08C8A
:1010800080210138E084A768204642462B4600F0C4
:10109000E7F9B7F5805F0DD10028EAD130882169E2
:1010A00022686FF35F200029506014BF01360236BA
:1010B000E2E700BF0028DCD116F8010B2168486088
:1010C000DAE7202084F83900002084F83800BDE8F1
:1010D000F0810000FEE70000FEE70000704700001E
:1010E00000F0070080F00703042B28BF04234FF013
:1010F000FF3C03380CFA03F338BF002099438140CA
:101100000CFA00F022EA0000084370477047000024
:1011100081B040F20400C2F20000006844F6D351EE
:10112000C1F26201A0FB0101480A009000BF0098D3
:10113000411E00280091F9D101B0704770470000AE
:10114000B0B501380024B4EB106F1CBF0120B0BD56
:101150004EF21005CEF2000568604FF0FF300F210F
:1011600000F0DAF90720AC6028602046B0BD00002E
:1011700080B5FFF721FA80BD70B590B001AC0025B5
:10118000204628210F95CDE90D55CDE90B55FEF7E9
:10119000F2FF012001904FF480300226CDE90205D4
:1011A000CDE908604FF4E0100A902046FFF77CFB81
:1011B00008B100BFFEE70F20CDE90B064FF48060B9
:1011C0000E900BA802210D950F95FFF759FA00B16B
:1011D000FEE710B070BD000041F20000C4F2020052
:1011E0000168002241F0010101604168CFF6FF0271
:1011F0001140416001684FF6FF72CFF6F662114070
:101200000160016821F480210160416821F4FE0140
:1012100041604FF41F0181604EF60850CEF200008D
:101220004FF000610160704780B540F29400C2F257
:101230000000FFF7F7FC80BD10B540F6FF3E0368E5
:10124000C4F2000E43F2004C7045C4F2010C20DCE5
:10125000B0F1804F2BD040F20042C4F20002904225
:1012600025D040F60002C4F2000290421FD0704523
:1012700023DCB0F1804F2ED040F20042C4F20002D5
:10128000904228D040F60002C4F20002904222D0E0
:1012900025E040F60042C4F20002904207D06045CB
:1012A00005D042F60042C4F201029042DFD14A6802
:1012B00023F0700313437045DBDD40F60042C4F2B7
:1012C0000002904207D0604505D042F60042C4F2C9
:1012D0000102904203D1CA6823F44073134323F000
:1012E00080024B69D1F800E08C681A4360450260C7
:1012F000C462C0F828E005D042F60042C4F2010200
:10130000904201D1096901630121416110BD0000D2
:1013100010B5446A2068406994F83910212907D132
:1013200010F0800004D00020E084204600F046F851
:101330002068406994F83A10222907D110F0400043
:1013400004D00020E085204600F02AF8E06B40F051
:101350001000E0632046FFF793FD10BD80B50168E3
:10136000406A0968890611D40021C1850168CA68EC
:1013700022F48072CA604A6922F001024A614A6915
:1013800022F040024A61202180F83A10FFF73EFE29
:1013900080BD000080B5406AFFF73AFE80BD0000C6
:1013A0000168CA6822F49072CA604A6922F0010298
:1013B0004A61202180F83A10704700000168CA682D
:1013C00022F0C002CA60202180F839107047000066
:1013D00010B504460068D4E902C22369016921F40A
:1013E000405111430161616943EA0C021143C26833
:1013F00041F20C639A431143C1604169A26921F42F
:101400004071114343F60002C4F20102904241616F
:1014100002D0FFF7F5F901E0FFF704FA626819213D
:1014200048439100B0FBF1F048F21F51C5F2EB11B7
:10143000A0FB01235A096FF0630302FB0300322370
:1014400003EB0010A0FB0101F02303EA5113206815
:1014500003EB0212C1F343111144816010BD00007F
:101460002DE9F0410446006800680840884202D136
:101470000020BDE8F0811D460E4690465F1C04E04A
:10148000206800683040B042F2D0002FF8D02DB173
:10149000FFF78CF8A0EB0800A842F1D92068C168DA
:1014A00021F4D071C160416921F001014161202026
:1014B00084F8390084F83A00002084F838000320CA
:1014C000BDE8F08180B540F25400C2F2000000682F
:1014D00043F60001C4F20101884208BF00F030F970
:1014E00080BD0000FEE70000002848BF704700F004
:1014F0001F01012202FA01F14EF200124009CEF260
:10150000000242F8201070474EF60C50CEF2000058
:101510000068C0F3022070474EF6145300F00F022B
:10152000CEF2000309011A4400F16043B0F1FF3F1D
:10153000C8BF03F564421170704700004EF60C51AD
:10154000CEF200010A684FF6FF031A4060F30A2248
:1015500042F0806040F0FD700860704780B5FFF792
:1015600039F8FFF709FEFEF72DFE00F037F800F01E
:1015700003F800F0B5F880BD80B586B00020CDE955
:101580000400CDE9020041F21800C4F20200016833
:1015900041F004010160006802A900F0040001901C
:1015A00001984FF4004002900120049040F60000A2
:1015B000C4F20100FEF700FF06B080BD80B582B026
:1015C000019040F25400C2F2000001A901224FF440
:1015D0007A73FFF71FFD019802B080BD80B586B019
:1015E0000020CDE90400CDE9020041F21800C4F268
:1015F0000200016841F010010160006802A900F0DA
:101600001000019001984FF4005002900120CDE9A4
:101610000300059041F20000C4F20100FEF7CCFE89
:1016200006B080BD80B541F20000C4F201004FF465
:1016300000510122FEF7B4FF80BD000080B541F2E9
:101640000000C4F201004FF400510022FEF7A8FF91
:1016500080BD0000FFF782FF09A000F0D7F818A0B6
:1016600000F0D4F8FFF7EAFF4FF4C870FEF790FEE1
:10167000FFF7D8FF4FF4C870FEF78AFEF2E700BF0D
:10168000555341525420444D41206578616D706C32
:10169000653A20444D412048542026205443202BB5
:1016A0002055534152542049444C45204C494E4505
:1016B00020696E74657272757074730D0A00000093
:1016C00053746172742073656E64696E672064611F
:1016D000746120746F2053544D33320D0A000000A2
:1016E00010B582B041F21C00C4F20200016840F261
:1016F000940441F0100101600068C2F2000400F09F
:1017000010000190019841F20000C4F20000232172
:101710000022632384E80F008020A061204622611C
:10172000FFF750FA362000210022FEF795FF362001
:10173000FEF78EFF2046FFF763FA02B010BD0000EF
:1017400010B582B040F25400C2F200000068C168D7
:10175000C90644BF01685FEAC16101D402B010BD8F
:1017600000210191016840F2540401914068C2F2E5
:101770000004019001982046FFF720FB04A000F030
:101780005DF800F01BF82046FFF748FB02B010BDE3
:101790000D0A756172745F69646C650D000000006C
:1017A00080B5034640F254008AB2C2F200001946E6
:1017B0004FF47A73FFF72EFC80BD0000B0B540F205
:1017C0001000C2F20000006840F2D8054068C2F282
:1017D00000052968C0F140048C4208BFB0BD40F24A
:1017E000DC00C2F200008C42084401D9611A09E011
:1017F000C1F14001FFF7D4FF34B140F2DC00C2F286
:1018000000002146FFF7CCFF2C60B0BD10B50446A8
:10181000FEF7BCFC01462046FFF7C2FF10BD02E008
:1018200008C8121F08C1002AFAD17047704700206B
:1018300001E001C1121F002AFBD1704710B5044618
:1018400001E0FFF7BBFE14F8010B04490028F8D1B2
:10185000BDE810400A20FFF7B1BE000000000020E4
:101860000000000000000000010203040607080950
:101870000000000001020304981800080000002086
:10188000100000001E180008A81800081000002012
:10189000100500002E180008000000000024F400CD
:0818A00001000000100000002F
:0400000508000131BD
:00000001FF
